{
  "_format": "hh-sol-artifact-1",
  "contractName": "Election",
  "sourceName": "contracts/Election.sol",
  "abi": [
    {
      "inputs": [],
      "stateMutability": "nonpayable",
      "type": "constructor"
    },
    {
      "anonymous": false,
      "inputs": [
        {
          "indexed": true,
          "internalType": "uint256",
          "name": "electionId",
          "type": "uint256"
        },
        {
          "indexed": true,
          "internalType": "uint256",
          "name": "candidateId",
          "type": "uint256"
        },
        {
          "indexed": false,
          "internalType": "string",
          "name": "name",
          "type": "string"
        },
        {
          "indexed": false,
          "internalType": "string",
          "name": "info",
          "type": "string"
        }
      ],
      "name": "CandidateRegistered",
      "type": "event"
    },
    {
      "anonymous": false,
      "inputs": [
        {
          "indexed": true,
          "internalType": "uint256",
          "name": "electionId",
          "type": "uint256"
        },
        {
          "indexed": false,
          "internalType": "string",
          "name": "title",
          "type": "string"
        },
        {
          "indexed": false,
          "internalType": "string",
          "name": "description",
          "type": "string"
        }
      ],
      "name": "ElectionCreated",
      "type": "event"
    },
    {
      "anonymous": false,
      "inputs": [
        {
          "indexed": true,
          "internalType": "uint256",
          "name": "electionId",
          "type": "uint256"
        },
        {
          "indexed": true,
          "internalType": "uint256",
          "name": "candidateId",
          "type": "uint256"
        },
        {
          "indexed": true,
          "internalType": "address",
          "name": "voter",
          "type": "address"
        }
      ],
      "name": "VoteCast",
      "type": "event"
    },
    {
      "anonymous": false,
      "inputs": [
        {
          "indexed": true,
          "internalType": "address",
          "name": "voter",
          "type": "address"
        },
        {
          "indexed": false,
          "internalType": "string",
          "name": "name",
          "type": "string"
        }
      ],
      "name": "VoterRegistered",
      "type": "event"
    },
    {
      "inputs": [
        {
          "internalType": "uint256",
          "name": "",
          "type": "uint256"
        }
      ],
      "name": "candidates",
      "outputs": [
        {
          "internalType": "uint256",
          "name": "id",
          "type": "uint256"
        },
        {
          "internalType": "string",
          "name": "name",
          "type": "string"
        },
        {
          "internalType": "string",
          "name": "info",
          "type": "string"
        },
        {
          "internalType": "uint256",
          "name": "voteCount",
          "type": "uint256"
        }
      ],
      "stateMutability": "view",
      "type": "function"
    },
    {
      "inputs": [
        {
          "internalType": "uint256",
          "name": "_electionId",
          "type": "uint256"
        },
        {
          "internalType": "uint256",
          "name": "_candidateId",
          "type": "uint256"
        }
      ],
      "name": "castVote",
      "outputs": [],
      "stateMutability": "nonpayable",
      "type": "function"
    },
    {
      "inputs": [
        {
          "internalType": "string",
          "name": "_title",
          "type": "string"
        },
        {
          "internalType": "string",
          "name": "_description",
          "type": "string"
        }
      ],
      "name": "createElection",
      "outputs": [],
      "stateMutability": "nonpayable",
      "type": "function"
    },
    {
      "inputs": [],
      "name": "electionCount",
      "outputs": [
        {
          "internalType": "uint256",
          "name": "",
          "type": "uint256"
        }
      ],
      "stateMutability": "view",
      "type": "function"
    },
    {
      "inputs": [],
      "name": "electionDuration",
      "outputs": [
        {
          "internalType": "uint256",
          "name": "",
          "type": "uint256"
        }
      ],
      "stateMutability": "view",
      "type": "function"
    },
    {
      "inputs": [
        {
          "internalType": "uint256",
          "name": "",
          "type": "uint256"
        }
      ],
      "name": "elections",
      "outputs": [
        {
          "internalType": "uint256",
          "name": "id",
          "type": "uint256"
        },
        {
          "internalType": "uint256",
          "name": "endTimestamp",
          "type": "uint256"
        },
        {
          "internalType": "uint256",
          "name": "registrationDeadline",
          "type": "uint256"
        },
        {
          "internalType": "string",
          "name": "title",
          "type": "string"
        },
        {
          "internalType": "string",
          "name": "description",
          "type": "string"
        },
        {
          "internalType": "string",
          "name": "host",
          "type": "string"
        },
        {
          "internalType": "uint256",
          "name": "candidateCount",
          "type": "uint256"
        },
        {
          "internalType": "uint256",
          "name": "winner",
          "type": "uint256"
        }
      ],
      "stateMutability": "view",
      "type": "function"
    },
    {
      "inputs": [
        {
          "internalType": "uint256",
          "name": "_electionId",
          "type": "uint256"
        }
      ],
      "name": "getCandidates",
      "outputs": [
        {
          "components": [
            {
              "internalType": "uint256",
              "name": "id",
              "type": "uint256"
            },
            {
              "internalType": "string",
              "name": "name",
              "type": "string"
            },
            {
              "internalType": "string",
              "name": "info",
              "type": "string"
            },
            {
              "internalType": "uint256",
              "name": "voteCount",
              "type": "uint256"
            }
          ],
          "internalType": "struct Election.Candidate[]",
          "name": "",
          "type": "tuple[]"
        }
      ],
      "stateMutability": "view",
      "type": "function"
    },
    {
      "inputs": [
        {
          "internalType": "uint256",
          "name": "_electionId",
          "type": "uint256"
        }
      ],
      "name": "getVoters",
      "outputs": [
        {
          "internalType": "address[]",
          "name": "",
          "type": "address[]"
        }
      ],
      "stateMutability": "view",
      "type": "function"
    },
    {
      "inputs": [
        {
          "internalType": "uint256",
          "name": "_electionId",
          "type": "uint256"
        }
      ],
      "name": "getWinner",
      "outputs": [
        {
          "components": [
            {
              "internalType": "uint256",
              "name": "id",
              "type": "uint256"
            },
            {
              "internalType": "string",
              "name": "name",
              "type": "string"
            },
            {
              "internalType": "string",
              "name": "info",
              "type": "string"
            },
            {
              "internalType": "uint256",
              "name": "voteCount",
              "type": "uint256"
            }
          ],
          "internalType": "struct Election.Candidate",
          "name": "",
          "type": "tuple"
        }
      ],
      "stateMutability": "view",
      "type": "function"
    },
    {
      "inputs": [
        {
          "internalType": "uint256",
          "name": "",
          "type": "uint256"
        },
        {
          "internalType": "address",
          "name": "",
          "type": "address"
        }
      ],
      "name": "hasVoted",
      "outputs": [
        {
          "internalType": "bool",
          "name": "",
          "type": "bool"
        }
      ],
      "stateMutability": "view",
      "type": "function"
    },
    {
      "inputs": [
        {
          "internalType": "uint256",
          "name": "_electionId",
          "type": "uint256"
        },
        {
          "internalType": "string",
          "name": "_name",
          "type": "string"
        },
        {
          "internalType": "string",
          "name": "_info",
          "type": "string"
        }
      ],
      "name": "registerCandidate",
      "outputs": [],
      "stateMutability": "nonpayable",
      "type": "function"
    },
    {
      "inputs": [],
      "name": "registrationDeadline",
      "outputs": [
        {
          "internalType": "uint256",
          "name": "",
          "type": "uint256"
        }
      ],
      "stateMutability": "view",
      "type": "function"
    },
    {
      "inputs": [],
      "name": "voterCount",
      "outputs": [
        {
          "internalType": "uint256",
          "name": "",
          "type": "uint256"
        }
      ],
      "stateMutability": "view",
      "type": "function"
    }
  ],
  "bytecode": "0x608060405234801561001057600080fd5b506103846000819055506111946001819055506120fc806100326000396000f3fe608060405234801561001057600080fd5b50600436106100cf5760003560e01c806342169e481161008c57806386b646f21161006657806386b646f214610244578063997d283014610274578063bd27eca014610292578063bd5b5faf146102ae576100cf565b806342169e48146101bf57806343859632146101dd5780635e6fef011461020d576100cf565b806311184392146100d45780631bf806cb146100f25780632c0a3f89146101105780633477ee2e1461012c5780633e39a7a51461015f5780634129b2c91461018f575b600080fd5b6100dc6102ca565b6040516100e991906110f4565b60405180910390f35b6100fa6102d0565b60405161010791906110f4565b60405180910390f35b61012a6004803603810190610125919061114f565b6102d6565b005b6101466004803603810190610141919061118f565b6105a1565b604051610156949392919061124c565b60405180910390f35b6101796004803603810190610174919061118f565b6106e1565b6040516101869190611424565b60405180910390f35b6101a960048036038101906101a4919061118f565b61091d565b6040516101b691906114b0565b60405180910390f35b6101c7610b61565b6040516101d491906110f4565b60405180910390f35b6101f760048036038101906101f29190611530565b610b67565b604051610204919061158b565b60405180910390f35b6102276004803603810190610222919061118f565b610b96565b60405161023b9897969594939291906115a6565b60405180910390f35b61025e6004803603810190610259919061118f565b610d76565b60405161026b91906116f7565b60405180910390f35b61027c610e20565b60405161028991906110f4565b60405180910390f35b6102ac60048036038101906102a7919061184e565b610e26565b005b6102c860048036038101906102c391906118c6565b610f7b565b005b60015481565b60005481565b60008211610319576040517f08c379a00000000000000000000000000000000000000000000000000000000081526004016103109061199d565b60405180910390fd5b6000811161035c576040517f08c379a000000000000000000000000000000000000000000000000000000000815260040161035390611a09565b60405180910390fd5b6000600260008481526020019081526020016000209050806001015442106103b9576040517f08c379a00000000000000000000000000000000000000000000000000000000081526004016103b090611a75565b60405180910390fd5b6004600084815260200190815260200160002060003373ffffffffffffffffffffffffffffffffffffffff1673ffffffffffffffffffffffffffffffffffffffff16815260200190815260200160002060009054906101000a900460ff1615610457576040517f08c379a000000000000000000000000000000000000000000000000000000000815260040161044e90611b07565b60405180910390fd5b600060036000848152602001908152602001600020905080600301600081548092919061048390611b56565b919050555060016004600086815260200190815260200160002060003373ffffffffffffffffffffffffffffffffffffffff1673ffffffffffffffffffffffffffffffffffffffff16815260200190815260200160002060006101000a81548160ff02191690831515021790555081600801339080600181540180825580915050600190039060005260206000200160009091909190916101000a81548173ffffffffffffffffffffffffffffffffffffffff021916908373ffffffffffffffffffffffffffffffffffffffff1602179055503373ffffffffffffffffffffffffffffffffffffffff1683857f7fe1d4e6b34e228b5dc059fcdc037c71b216fb2417f47c171e505144a5e4f5fc60405160405180910390a450505050565b60036020528060005260406000206000915090508060000154908060010180546105ca90611bcd565b80601f01602080910402602001604051908101604052809291908181526020018280546105f690611bcd565b80156106435780601f1061061857610100808354040283529160200191610643565b820191906000526020600020905b81548152906001019060200180831161062657829003601f168201915b50505050509080600201805461065890611bcd565b80601f016020809104026020016040519081016040528092919081815260200182805461068490611bcd565b80156106d15780601f106106a6576101008083540402835291602001916106d1565b820191906000526020600020905b8154815290600101906020018083116106b457829003601f168201915b5050505050908060030154905084565b606060006002600084815260200190815260200160002090506000816006015467ffffffffffffffff81111561071a57610719611723565b5b60405190808252806020026020018201604052801561075357816020015b6107406110b3565b8152602001906001900390816107385790505b50905060005b826006015481101561091257600083600701828154811061077d5761077c611bfe565b5b9060005260206000200154905060036000828152602001908152602001600020604051806080016040529081600082015481526020016001820180546107c290611bcd565b80601f01602080910402602001604051908101604052809291908181526020018280546107ee90611bcd565b801561083b5780601f106108105761010080835404028352916020019161083b565b820191906000526020600020905b81548152906001019060200180831161081e57829003601f168201915b5050505050815260200160028201805461085490611bcd565b80601f016020809104026020016040519081016040528092919081815260200182805461088090611bcd565b80156108cd5780601f106108a2576101008083540402835291602001916108cd565b820191906000526020600020905b8154815290600101906020018083116108b057829003601f168201915b505050505081526020016003820154815250508383815181106108f3576108f2611bfe565b5b602002602001018190525050808061090a90611b56565b915050610759565b508092505050919050565b6109256110b3565b60006002600084815260200190815260200160002090504281600101541115610983576040517f08c379a000000000000000000000000000000000000000000000000000000000815260040161097a90611c79565b60405180910390fd5b60008080600090505b8360060154811015610a005760008460070182815481106109b0576109af611bfe565b5b90600052602060002001549050600060036000838152602001908152602001600020905084816003015411156109eb57806003015494508193505b505080806109f890611b56565b91505061098c565b506003600082815260200190815260200160002060405180608001604052908160008201548152602001600182018054610a3990611bcd565b80601f0160208091040260200160405190810160405280929190818152602001828054610a6590611bcd565b8015610ab25780601f10610a8757610100808354040283529160200191610ab2565b820191906000526020600020905b815481529060010190602001808311610a9557829003601f168201915b50505050508152602001600282018054610acb90611bcd565b80601f0160208091040260200160405190810160405280929190818152602001828054610af790611bcd565b8015610b445780601f10610b1957610100808354040283529160200191610b44565b820191906000526020600020905b815481529060010190602001808311610b2757829003601f168201915b505050505081526020016003820154815250509350505050919050565b60065481565b60046020528160005260406000206020528060005260406000206000915091509054906101000a900460ff1681565b6002602052806000526040600020600091509050806000015490806001015490806002015490806003018054610bcb90611bcd565b80601f0160208091040260200160405190810160405280929190818152602001828054610bf790611bcd565b8015610c445780601f10610c1957610100808354040283529160200191610c44565b820191906000526020600020905b815481529060010190602001808311610c2757829003601f168201915b505050505090806004018054610c5990611bcd565b80601f0160208091040260200160405190810160405280929190818152602001828054610c8590611bcd565b8015610cd25780601f10610ca757610100808354040283529160200191610cd2565b820191906000526020600020905b815481529060010190602001808311610cb557829003601f168201915b505050505090806005018054610ce790611bcd565b80601f0160208091040260200160405190810160405280929190818152602001828054610d1390611bcd565b8015610d605780601f10610d3557610100808354040283529160200191610d60565b820191906000526020600020905b815481529060010190602001808311610d4357829003601f168201915b5050505050908060060154908060090154905088565b6060600060026000848152602001908152602001600020905080600801805480602002602001604051908101604052809291908181526020018280548015610e1357602002820191906000526020600020905b8160009054906101000a900473ffffffffffffffffffffffffffffffffffffffff1673ffffffffffffffffffffffffffffffffffffffff1681526020019060010190808311610dc9575b5050505050915050919050565b60055481565b6000825111610e6a576040517f08c379a0000000000000000000000000000000000000000000000000000000008152600401610e6190611ce5565b60405180910390fd5b6000815111610eae576040517f08c379a0000000000000000000000000000000000000000000000000000000008152600401610ea590611d51565b60405180910390fd5b60056000815480929190610ec190611b56565b919050555060006002600060055481526020019081526020016000209050600554816000018190555082816003019081610efb9190611f1d565b5081816004019081610f0d9190611f1d565b5060005442610f1c9190611fef565b816001018190555060015442610f329190611fef565b81600201819055506005547feaf9c9dabc2a68b717e3095068d04a84ecace13a1ab18b4499a913c3ab3d28698484604051610f6e929190612023565b60405180910390a2505050565b600060026000858152602001908152602001600020905080600201544210610fd8576040517f08c379a0000000000000000000000000000000000000000000000000000000008152600401610fcf906120a6565b60405180910390fd5b806006016000815480929190610fed90611b56565b9190505550600060036000836006015481526020019081526020016000209050816006015481600001819055508381600101908161102b9190611f1d565b508281600201908161103d9190611f1d565b5081600701826006015490806001815401808255809150506001900390600052602060002001600090919091909150558160060154857fac91600f8370ef11ecfcad50596e7b3ab017624e2bd1dc04b272cf3b3ce7da6e86866040516110a4929190612023565b60405180910390a35050505050565b6040518060800160405280600081526020016060815260200160608152602001600081525090565b6000819050919050565b6110ee816110db565b82525050565b600060208201905061110960008301846110e5565b92915050565b6000604051905090565b600080fd5b600080fd5b61112c816110db565b811461113757600080fd5b50565b60008135905061114981611123565b92915050565b6000806040838503121561116657611165611119565b5b60006111748582860161113a565b92505060206111858582860161113a565b9150509250929050565b6000602082840312156111a5576111a4611119565b5b60006111b38482850161113a565b91505092915050565b600081519050919050565b600082825260208201905092915050565b60005b838110156111f65780820151818401526020810190506111db565b60008484015250505050565b6000601f19601f8301169050919050565b600061121e826111bc565b61122881856111c7565b93506112388185602086016111d8565b61124181611202565b840191505092915050565b600060808201905061126160008301876110e5565b81810360208301526112738186611213565b905081810360408301526112878185611213565b905061129660608301846110e5565b95945050505050565b600081519050919050565b600082825260208201905092915050565b6000819050602082019050919050565b6112d4816110db565b82525050565b600082825260208201905092915050565b60006112f6826111bc565b61130081856112da565b93506113108185602086016111d8565b61131981611202565b840191505092915050565b600060808301600083015161133c60008601826112cb565b506020830151848203602086015261135482826112eb565b9150506040830151848203604086015261136e82826112eb565b915050606083015161138360608601826112cb565b508091505092915050565b600061139a8383611324565b905092915050565b6000602082019050919050565b60006113ba8261129f565b6113c481856112aa565b9350836020820285016113d6856112bb565b8060005b8581101561141257848403895281516113f3858261138e565b94506113fe836113a2565b925060208a019950506001810190506113da565b50829750879550505050505092915050565b6000602082019050818103600083015261143e81846113af565b905092915050565b600060808301600083015161145e60008601826112cb565b506020830151848203602086015261147682826112eb565b9150506040830151848203604086015261149082826112eb565b91505060608301516114a560608601826112cb565b508091505092915050565b600060208201905081810360008301526114ca8184611446565b905092915050565b600073ffffffffffffffffffffffffffffffffffffffff82169050919050565b60006114fd826114d2565b9050919050565b61150d816114f2565b811461151857600080fd5b50565b60008135905061152a81611504565b92915050565b6000806040838503121561154757611546611119565b5b60006115558582860161113a565b92505060206115668582860161151b565b9150509250929050565b60008115159050919050565b61158581611570565b82525050565b60006020820190506115a0600083018461157c565b92915050565b6000610100820190506115bc600083018b6110e5565b6115c9602083018a6110e5565b6115d660408301896110e5565b81810360608301526115e88188611213565b905081810360808301526115fc8187611213565b905081810360a08301526116108186611213565b905061161f60c08301856110e5565b61162c60e08301846110e5565b9998505050505050505050565b600081519050919050565b600082825260208201905092915050565b6000819050602082019050919050565b61166e816114f2565b82525050565b60006116808383611665565b60208301905092915050565b6000602082019050919050565b60006116a482611639565b6116ae8185611644565b93506116b983611655565b8060005b838110156116ea5781516116d18882611674565b97506116dc8361168c565b9250506001810190506116bd565b5085935050505092915050565b600060208201905081810360008301526117118184611699565b905092915050565b600080fd5b600080fd5b7f4e487b7100000000000000000000000000000000000000000000000000000000600052604160045260246000fd5b61175b82611202565b810181811067ffffffffffffffff8211171561177a57611779611723565b5b80604052505050565b600061178d61110f565b90506117998282611752565b919050565b600067ffffffffffffffff8211156117b9576117b8611723565b5b6117c282611202565b9050602081019050919050565b82818337600083830152505050565b60006117f16117ec8461179e565b611783565b90508281526020810184848401111561180d5761180c61171e565b5b6118188482856117cf565b509392505050565b600082601f83011261183557611834611719565b5b81356118458482602086016117de565b91505092915050565b6000806040838503121561186557611864611119565b5b600083013567ffffffffffffffff8111156118835761188261111e565b5b61188f85828601611820565b925050602083013567ffffffffffffffff8111156118b0576118af61111e565b5b6118bc85828601611820565b9150509250929050565b6000806000606084860312156118df576118de611119565b5b60006118ed8682870161113a565b935050602084013567ffffffffffffffff81111561190e5761190d61111e565b5b61191a86828701611820565b925050604084013567ffffffffffffffff81111561193b5761193a61111e565b5b61194786828701611820565b9150509250925092565b7f496e76616c696420656c656374696f6e20496400000000000000000000000000600082015250565b60006119876013836111c7565b915061199282611951565b602082019050919050565b600060208201905081810360008301526119b68161197a565b9050919050565b7f496e76616c69642043616e646964617465204964000000000000000000000000600082015250565b60006119f36014836111c7565b91506119fe826119bd565b602082019050919050565b60006020820190508181036000830152611a22816119e6565b9050919050565b7f456c656374696f6e2068617320656e6465640000000000000000000000000000600082015250565b6000611a5f6012836111c7565b9150611a6a82611a29565b602082019050919050565b60006020820190508181036000830152611a8e81611a52565b9050919050565b7f43616e6e6f742063617374206120766f7465206d6f7265207468616e206f6e6360008201527f6500000000000000000000000000000000000000000000000000000000000000602082015250565b6000611af16021836111c7565b9150611afc82611a95565b604082019050919050565b60006020820190508181036000830152611b2081611ae4565b9050919050565b7f4e487b7100000000000000000000000000000000000000000000000000000000600052601160045260246000fd5b6000611b61826110db565b91507fffffffffffffffffffffffffffffffffffffffffffffffffffffffffffffffff8203611b9357611b92611b27565b5b600182019050919050565b7f4e487b7100000000000000000000000000000000000000000000000000000000600052602260045260246000fd5b60006002820490506001821680611be557607f821691505b602082108103611bf857611bf7611b9e565b5b50919050565b7f4e487b7100000000000000000000000000000000000000000000000000000000600052603260045260246000fd5b7f456c656374696f6e206e6f742079657420656e64656400000000000000000000600082015250565b6000611c636016836111c7565b9150611c6e82611c2d565b602082019050919050565b60006020820190508181036000830152611c9281611c56565b9050919050565b7f5469746c652063616e6e6f7420626520656d7074790000000000000000000000600082015250565b6000611ccf6015836111c7565b9150611cda82611c99565b602082019050919050565b60006020820190508181036000830152611cfe81611cc2565b9050919050565b7f4465736372697074696f6e2063616e6e6f7420626520656d7074790000000000600082015250565b6000611d3b601b836111c7565b9150611d4682611d05565b602082019050919050565b60006020820190508181036000830152611d6a81611d2e565b9050919050565b60008190508160005260206000209050919050565b60006020601f8301049050919050565b600082821b905092915050565b600060088302611dd37fffffffffffffffffffffffffffffffffffffffffffffffffffffffffffffffff82611d96565b611ddd8683611d96565b95508019841693508086168417925050509392505050565b6000819050919050565b6000611e1a611e15611e10846110db565b611df5565b6110db565b9050919050565b6000819050919050565b611e3483611dff565b611e48611e4082611e21565b848454611da3565b825550505050565b600090565b611e5d611e50565b611e68818484611e2b565b505050565b5b81811015611e8c57611e81600082611e55565b600181019050611e6e565b5050565b601f821115611ed157611ea281611d71565b611eab84611d86565b81016020851015611eba578190505b611ece611ec685611d86565b830182611e6d565b50505b505050565b600082821c905092915050565b6000611ef460001984600802611ed6565b1980831691505092915050565b6000611f0d8383611ee3565b9150826002028217905092915050565b611f26826111bc565b67ffffffffffffffff811115611f3f57611f3e611723565b5b611f498254611bcd565b611f54828285611e90565b600060209050601f831160018114611f875760008415611f75578287015190505b611f7f8582611f01565b865550611fe7565b601f198416611f9586611d71565b60005b82811015611fbd57848901518255600182019150602085019450602081019050611f98565b86831015611fda5784890151611fd6601f891682611ee3565b8355505b6001600288020188555050505b505050505050565b6000611ffa826110db565b9150612005836110db565b925082820190508082111561201d5761201c611b27565b5b92915050565b6000604082019050818103600083015261203d8185611213565b905081810360208301526120518184611213565b90509392505050565b7f526567697374726174696f6e20646561646c696e652068617320656e64656400600082015250565b6000612090601f836111c7565b915061209b8261205a565b602082019050919050565b600060208201905081810360008301526120bf81612083565b905091905056fea2646970667358221220b12202bf6bd4367df80b8ae4650406ba20f7cd365bb52b36adefe4872d261e1964736f6c63430008120033",
  "linkReferences": {},
  "deployedLinkReferences": {}
}